{
  "contractName": "Crowdsale",
  "abi": [
    {
      "constant": true,
      "inputs": [],
      "name": "startDate",
      "outputs": [
        {
          "name": "",
          "type": "uint256"
        }
      ],
      "payable": false,
      "stateMutability": "view",
      "type": "function"
    },
    {
      "constant": true,
      "inputs": [],
      "name": "stageBonus",
      "outputs": [
        {
          "name": "",
          "type": "uint8"
        }
      ],
      "payable": false,
      "stateMutability": "view",
      "type": "function"
    },
    {
      "constant": true,
      "inputs": [],
      "name": "rate",
      "outputs": [
        {
          "name": "",
          "type": "uint256"
        }
      ],
      "payable": false,
      "stateMutability": "view",
      "type": "function"
    },
    {
      "constant": true,
      "inputs": [],
      "name": "weiRaised",
      "outputs": [
        {
          "name": "",
          "type": "uint256"
        }
      ],
      "payable": false,
      "stateMutability": "view",
      "type": "function"
    },
    {
      "constant": true,
      "inputs": [],
      "name": "wallet",
      "outputs": [
        {
          "name": "",
          "type": "address"
        }
      ],
      "payable": false,
      "stateMutability": "view",
      "type": "function"
    },
    {
      "constant": true,
      "inputs": [],
      "name": "ETHUSD",
      "outputs": [
        {
          "name": "",
          "type": "uint256"
        }
      ],
      "payable": false,
      "stateMutability": "view",
      "type": "function"
    },
    {
      "constant": true,
      "inputs": [],
      "name": "isFinalized",
      "outputs": [
        {
          "name": "",
          "type": "bool"
        }
      ],
      "payable": false,
      "stateMutability": "view",
      "type": "function"
    },
    {
      "constant": true,
      "inputs": [],
      "name": "owner",
      "outputs": [
        {
          "name": "",
          "type": "address"
        }
      ],
      "payable": false,
      "stateMutability": "view",
      "type": "function"
    },
    {
      "constant": true,
      "inputs": [
        {
          "name": "",
          "type": "address"
        }
      ],
      "name": "whitelist",
      "outputs": [
        {
          "name": "",
          "type": "bool"
        }
      ],
      "payable": false,
      "stateMutability": "view",
      "type": "function"
    },
    {
      "constant": true,
      "inputs": [],
      "name": "hardcap",
      "outputs": [
        {
          "name": "",
          "type": "uint256"
        }
      ],
      "payable": false,
      "stateMutability": "view",
      "type": "function"
    },
    {
      "constant": true,
      "inputs": [],
      "name": "isPreICO",
      "outputs": [
        {
          "name": "",
          "type": "bool"
        }
      ],
      "payable": false,
      "stateMutability": "view",
      "type": "function"
    },
    {
      "constant": true,
      "inputs": [],
      "name": "endDate",
      "outputs": [
        {
          "name": "",
          "type": "uint256"
        }
      ],
      "payable": false,
      "stateMutability": "view",
      "type": "function"
    },
    {
      "constant": true,
      "inputs": [],
      "name": "backendOperator",
      "outputs": [
        {
          "name": "",
          "type": "address"
        }
      ],
      "payable": false,
      "stateMutability": "view",
      "type": "function"
    },
    {
      "constant": true,
      "inputs": [],
      "name": "token",
      "outputs": [
        {
          "name": "",
          "type": "address"
        }
      ],
      "payable": false,
      "stateMutability": "view",
      "type": "function"
    },
    {
      "inputs": [
        {
          "name": "_rate",
          "type": "uint256"
        },
        {
          "name": "_wallet",
          "type": "address"
        },
        {
          "name": "_startDate",
          "type": "uint256"
        },
        {
          "name": "_endDate",
          "type": "uint256"
        },
        {
          "name": "_isPreICO",
          "type": "bool"
        },
        {
          "name": "_hardcap",
          "type": "uint256"
        },
        {
          "name": "_stageBonus",
          "type": "uint8"
        }
      ],
      "payable": false,
      "stateMutability": "nonpayable",
      "type": "constructor"
    },
    {
      "payable": true,
      "stateMutability": "payable",
      "type": "fallback"
    },
    {
      "anonymous": false,
      "inputs": [
        {
          "indexed": true,
          "name": "purchaser",
          "type": "address"
        },
        {
          "indexed": true,
          "name": "beneficiary",
          "type": "address"
        },
        {
          "indexed": false,
          "name": "value",
          "type": "uint256"
        },
        {
          "indexed": false,
          "name": "amount",
          "type": "uint256"
        }
      ],
      "name": "TokenPurchase",
      "type": "event"
    },
    {
      "anonymous": false,
      "inputs": [],
      "name": "Finalized",
      "type": "event"
    },
    {
      "constant": false,
      "inputs": [
        {
          "name": "_wallet",
          "type": "uint16"
        }
      ],
      "name": "setWallet",
      "outputs": [],
      "payable": false,
      "stateMutability": "nonpayable",
      "type": "function"
    },
    {
      "constant": false,
      "inputs": [
        {
          "name": "_rate",
          "type": "uint16"
        }
      ],
      "name": "setRate",
      "outputs": [],
      "payable": false,
      "stateMutability": "nonpayable",
      "type": "function"
    },
    {
      "constant": false,
      "inputs": [
        {
          "name": "_token",
          "type": "address"
        }
      ],
      "name": "setToken",
      "outputs": [],
      "payable": false,
      "stateMutability": "nonpayable",
      "type": "function"
    },
    {
      "constant": false,
      "inputs": [
        {
          "name": "_hardcap",
          "type": "uint256"
        }
      ],
      "name": "setHardcap",
      "outputs": [],
      "payable": false,
      "stateMutability": "nonpayable",
      "type": "function"
    },
    {
      "constant": false,
      "inputs": [
        {
          "name": "_startDate",
          "type": "uint256"
        }
      ],
      "name": "setStartDate",
      "outputs": [],
      "payable": false,
      "stateMutability": "nonpayable",
      "type": "function"
    },
    {
      "constant": false,
      "inputs": [
        {
          "name": "_endDate",
          "type": "uint256"
        }
      ],
      "name": "setEndDate",
      "outputs": [],
      "payable": false,
      "stateMutability": "nonpayable",
      "type": "function"
    },
    {
      "constant": false,
      "inputs": [
        {
          "name": "_ETHUSD",
          "type": "uint256"
        }
      ],
      "name": "setETHUSD",
      "outputs": [],
      "payable": false,
      "stateMutability": "nonpayable",
      "type": "function"
    },
    {
      "constant": false,
      "inputs": [
        {
          "name": "newOperator",
          "type": "address"
        }
      ],
      "name": "setBackendOperator",
      "outputs": [],
      "payable": false,
      "stateMutability": "nonpayable",
      "type": "function"
    },
    {
      "constant": false,
      "inputs": [
        {
          "name": "_amount",
          "type": "uint256"
        }
      ],
      "name": "getTokens",
      "outputs": [],
      "payable": false,
      "stateMutability": "nonpayable",
      "type": "function"
    },
    {
      "constant": false,
      "inputs": [
        {
          "name": "_beneficiary",
          "type": "address"
        }
      ],
      "name": "buyTokens",
      "outputs": [],
      "payable": true,
      "stateMutability": "payable",
      "type": "function"
    },
    {
      "constant": false,
      "inputs": [
        {
          "name": "_beneficiary",
          "type": "address"
        }
      ],
      "name": "addToWhitelist",
      "outputs": [],
      "payable": false,
      "stateMutability": "nonpayable",
      "type": "function"
    },
    {
      "constant": false,
      "inputs": [
        {
          "name": "_beneficiaries",
          "type": "address[]"
        }
      ],
      "name": "addManyToWhitelist",
      "outputs": [],
      "payable": false,
      "stateMutability": "nonpayable",
      "type": "function"
    },
    {
      "constant": false,
      "inputs": [
        {
          "name": "_beneficiary",
          "type": "address"
        }
      ],
      "name": "removeFromWhitelist",
      "outputs": [],
      "payable": false,
      "stateMutability": "nonpayable",
      "type": "function"
    },
    {
      "constant": true,
      "inputs": [],
      "name": "hasClosed",
      "outputs": [
        {
          "name": "",
          "type": "bool"
        }
      ],
      "payable": false,
      "stateMutability": "view",
      "type": "function"
    },
    {
      "constant": false,
      "inputs": [],
      "name": "finalize",
      "outputs": [],
      "payable": false,
      "stateMutability": "nonpayable",
      "type": "function"
    }
  ],
  "bytecode": "0x608060405233600360006101000a81548173ffffffffffffffffffffffffffffffffffffffff021916908373ffffffffffffffffffffffffffffffffffffffff1602179055506000600a60026101000a81548160ff02191690831515021790555034801561006c57600080fd5b5060405160e080611ae483398101806040528101908080519060200190929190805190602001909291908051906020019092919080519060200190929190805190602001909291908051906020019092919080519060200190929190505050336000806101000a81548173ffffffffffffffffffffffffffffffffffffffff021916908373ffffffffffffffffffffffffffffffffffffffff16021790555060008711151561011a57600080fd5b84841015151561012957600080fd5b60008211151561013857600080fd5b8660048190555085600260006101000a81548173ffffffffffffffffffffffffffffffffffffffff021916908373ffffffffffffffffffffffffffffffffffffffff160217905550846008819055508360098190555082600a60016101000a81548160ff02191690831515021790555081600681905550600a60019054906101000a900460ff16156101e557601e600a60006101000a81548160ff021916908360ff160217905550610201565b80600a60006101000a81548160ff021916908360ff1602179055505b505050505050506118cd806102176000396000f300608060405260043610610175576000357c0100000000000000000000000000000000000000000000000000000000900463ffffffff16806302262ced1461018057806304179bbe146101c35780630b97bc86146101f4578063144fa6d71461021f5780631515bc2b146102625780631e6d4180146102915780632c4e722e146102c25780633784f000146102ed5780634042b66f1461031a5780634bb278f314610345578063521eb2731461035c57806373db0844146103b357806382d95df5146103de5780638ab1d6811461040b5780638c10671c1461044e5780638d4e4083146104b45780638da5cb5b146104e35780639b19251a1461053a578063b071cbe614610595578063b60f5b91146105c0578063bed315f8146105ef578063c24a0f8b14610620578063c7b6084c1461064b578063d3c9cc26146106a2578063e230dfbd146106cf578063e28fa27d146106fc578063e43252d714610729578063ec8ac4d81461076c578063fc0c546a146107a2575b61017e336107f9565b005b34801561018c57600080fd5b506101c1600480360381019080803573ffffffffffffffffffffffffffffffffffffffff1690602001909291905050506108b3565b005b3480156101cf57600080fd5b506101f2600480360381019080803561ffff169060200190929190505050610952565b005b34801561020057600080fd5b506102096109f5565b6040518082815260200191505060405180910390f35b34801561022b57600080fd5b50610260600480360381019080803573ffffffffffffffffffffffffffffffffffffffff1690602001909291905050506109fb565b005b34801561026e57600080fd5b50610277610a9a565b604051808215151515815260200191505060405180910390f35b34801561029d57600080fd5b506102a6610aa6565b604051808260ff1660ff16815260200191505060405180910390f35b3480156102ce57600080fd5b506102d7610ab9565b6040518082815260200191505060405180910390f35b3480156102f957600080fd5b5061031860048036038101908080359060200190929190505050610abf565b005b34801561032657600080fd5b5061032f610b34565b6040518082815260200191505060405180910390f35b34801561035157600080fd5b5061035a610b3a565b005b34801561036857600080fd5b50610371610c0d565b604051808273ffffffffffffffffffffffffffffffffffffffff1673ffffffffffffffffffffffffffffffffffffffff16815260200191505060405180910390f35b3480156103bf57600080fd5b506103c8610c33565b6040518082815260200191505060405180910390f35b3480156103ea57600080fd5b5061040960048036038101908080359060200190929190505050610c39565b005b34801561041757600080fd5b5061044c600480360381019080803573ffffffffffffffffffffffffffffffffffffffff169060200190929190505050610cae565b005b34801561045a57600080fd5b506104b260048036038101908080359060200190820180359060200190808060200260200160405190810160405280939291908181526020018383602002808284378201915050505050509192919290505050610dbc565b005b3480156104c057600080fd5b506104c9610eff565b604051808215151515815260200191505060405180910390f35b3480156104ef57600080fd5b506104f8610f12565b604051808273ffffffffffffffffffffffffffffffffffffffff1673ffffffffffffffffffffffffffffffffffffffff16815260200191505060405180910390f35b34801561054657600080fd5b5061057b600480360381019080803573ffffffffffffffffffffffffffffffffffffffff169060200190929190505050610f37565b604051808215151515815260200191505060405180910390f35b3480156105a157600080fd5b506105aa610f57565b6040518082815260200191505060405180910390f35b3480156105cc57600080fd5b506105d5610f5d565b604051808215151515815260200191505060405180910390f35b3480156105fb57600080fd5b5061061e600480360381019080803561ffff169060200190929190505050610f70565b005b34801561062c57600080fd5b50610635610fec565b6040518082815260200191505060405180910390f35b34801561065757600080fd5b50610660610ff2565b604051808273ffffffffffffffffffffffffffffffffffffffff1673ffffffffffffffffffffffffffffffffffffffff16815260200191505060405180910390f35b3480156106ae57600080fd5b506106cd60048036038101908080359060200190929190505050611018565b005b3480156106db57600080fd5b506106fa60048036038101908080359060200190929190505050611153565b005b34801561070857600080fd5b50610727600480360381019080803590602001909291905050506111b8565b005b34801561073557600080fd5b5061076a600480360381019080803573ffffffffffffffffffffffffffffffffffffffff16906020019092919050505061121d565b005b6107a0600480360381019080803573ffffffffffffffffffffffffffffffffffffffff1690602001909291905050506107f9565b005b3480156107ae57600080fd5b506107b761132b565b604051808273ffffffffffffffffffffffffffffffffffffffff1673ffffffffffffffffffffffffffffffffffffffff16815260200191505060405180910390f35b6000803491506108098383611351565b610812826114b6565b9050610829826005546116bd90919063ffffffff16565b60058190555061083983826116db565b8273ffffffffffffffffffffffffffffffffffffffff163373ffffffffffffffffffffffffffffffffffffffff167f623b3804fa71d67900d064613da8f94b9617215ee90799290593e1745087ad188484604051808381526020018281526020019250505060405180910390a36108ae6117e0565b505050565b6000809054906101000a900473ffffffffffffffffffffffffffffffffffffffff1673ffffffffffffffffffffffffffffffffffffffff163373ffffffffffffffffffffffffffffffffffffffff1614151561090e57600080fd5b80600360006101000a81548173ffffffffffffffffffffffffffffffffffffffff021916908373ffffffffffffffffffffffffffffffffffffffff16021790555050565b6000809054906101000a900473ffffffffffffffffffffffffffffffffffffffff1673ffffffffffffffffffffffffffffffffffffffff163373ffffffffffffffffffffffffffffffffffffffff161415156109ad57600080fd5b8061ffff16600260006101000a81548173ffffffffffffffffffffffffffffffffffffffff021916908373ffffffffffffffffffffffffffffffffffffffff16021790555050565b60085481565b6000809054906101000a900473ffffffffffffffffffffffffffffffffffffffff1673ffffffffffffffffffffffffffffffffffffffff163373ffffffffffffffffffffffffffffffffffffffff16141515610a5657600080fd5b80600160006101000a81548173ffffffffffffffffffffffffffffffffffffffff021916908373ffffffffffffffffffffffffffffffffffffffff16021790555050565b60006009544211905090565b600a60009054906101000a900460ff1681565b60045481565b6000809054906101000a900473ffffffffffffffffffffffffffffffffffffffff1673ffffffffffffffffffffffffffffffffffffffff163373ffffffffffffffffffffffffffffffffffffffff16141515610b1a57600080fd5b60085481111515610b2a57600080fd5b8060098190555050565b60055481565b6000809054906101000a900473ffffffffffffffffffffffffffffffffffffffff1673ffffffffffffffffffffffffffffffffffffffff163373ffffffffffffffffffffffffffffffffffffffff16141515610b9557600080fd5b600a60029054906101000a900460ff16151515610bb157600080fd5b610bb9610a9a565b1515610bc457600080fd5b7f6823b073d48d6e3a7d385eeb601452d680e74bb46afe3255a7d778f3a9b1768160405160405180910390a16001600a60026101000a81548160ff021916908315150217905550565b600260009054906101000a900473ffffffffffffffffffffffffffffffffffffffff1681565b60075481565b6000809054906101000a900473ffffffffffffffffffffffffffffffffffffffff1673ffffffffffffffffffffffffffffffffffffffff163373ffffffffffffffffffffffffffffffffffffffff16141515610c9457600080fd5b60095481101515610ca457600080fd5b8060088190555050565b600360009054906101000a900473ffffffffffffffffffffffffffffffffffffffff1673ffffffffffffffffffffffffffffffffffffffff163373ffffffffffffffffffffffffffffffffffffffff161480610d5657506000809054906101000a900473ffffffffffffffffffffffffffffffffffffffff1673ffffffffffffffffffffffffffffffffffffffff163373ffffffffffffffffffffffffffffffffffffffff16145b1515610d6157600080fd5b6000600b60008373ffffffffffffffffffffffffffffffffffffffff1673ffffffffffffffffffffffffffffffffffffffff16815260200190815260200160002060006101000a81548160ff02191690831515021790555050565b6000600360009054906101000a900473ffffffffffffffffffffffffffffffffffffffff1673ffffffffffffffffffffffffffffffffffffffff163373ffffffffffffffffffffffffffffffffffffffff161480610e6657506000809054906101000a900473ffffffffffffffffffffffffffffffffffffffff1673ffffffffffffffffffffffffffffffffffffffff163373ffffffffffffffffffffffffffffffffffffffff16145b1515610e7157600080fd5b600090505b8151811015610efb576001600b60008484815181101515610e9357fe5b9060200190602002015173ffffffffffffffffffffffffffffffffffffffff1673ffffffffffffffffffffffffffffffffffffffff16815260200190815260200160002060006101000a81548160ff0219169083151502179055508080600101915050610e76565b5050565b600a60029054906101000a900460ff1681565b6000809054906101000a900473ffffffffffffffffffffffffffffffffffffffff1681565b600b6020528060005260406000206000915054906101000a900460ff1681565b60065481565b600a60019054906101000a900460ff1681565b6000809054906101000a900473ffffffffffffffffffffffffffffffffffffffff1673ffffffffffffffffffffffffffffffffffffffff163373ffffffffffffffffffffffffffffffffffffffff16141515610fcb57600080fd5b60008161ffff16111515610fde57600080fd5b8061ffff1660048190555050565b60095481565b600360009054906101000a900473ffffffffffffffffffffffffffffffffffffffff1681565b6000809054906101000a900473ffffffffffffffffffffffffffffffffffffffff1673ffffffffffffffffffffffffffffffffffffffff163373ffffffffffffffffffffffffffffffffffffffff1614151561107357600080fd5b600160009054906101000a900473ffffffffffffffffffffffffffffffffffffffff1673ffffffffffffffffffffffffffffffffffffffff1663a61fd1a230836040518363ffffffff167c0100000000000000000000000000000000000000000000000000000000028152600401808373ffffffffffffffffffffffffffffffffffffffff1673ffffffffffffffffffffffffffffffffffffffff16815260200182815260200192505050600060405180830381600087803b15801561113857600080fd5b505af115801561114c573d6000803e3d6000fd5b5050505050565b6000809054906101000a900473ffffffffffffffffffffffffffffffffffffffff1673ffffffffffffffffffffffffffffffffffffffff163373ffffffffffffffffffffffffffffffffffffffff161415156111ae57600080fd5b8060078190555050565b6000809054906101000a900473ffffffffffffffffffffffffffffffffffffffff1673ffffffffffffffffffffffffffffffffffffffff163373ffffffffffffffffffffffffffffffffffffffff1614151561121357600080fd5b8060068190555050565b600360009054906101000a900473ffffffffffffffffffffffffffffffffffffffff1673ffffffffffffffffffffffffffffffffffffffff163373ffffffffffffffffffffffffffffffffffffffff1614806112c557506000809054906101000a900473ffffffffffffffffffffffffffffffffffffffff1673ffffffffffffffffffffffffffffffffffffffff163373ffffffffffffffffffffffffffffffffffffffff16145b15156112d057600080fd5b6001600b60008373ffffffffffffffffffffffffffffffffffffffff1673ffffffffffffffffffffffffffffffffffffffff16815260200190815260200160002060006101000a81548160ff02191690831515021790555050565b600160009054906101000a900473ffffffffffffffffffffffffffffffffffffffff1681565b6008544210158015611364575060095442105b151561136f57600080fd5b600a60029054906101000a900460ff1615151561138b57600080fd5b600073ffffffffffffffffffffffffffffffffffffffff168273ffffffffffffffffffffffffffffffffffffffff16141515156113c757600080fd5b600081141515156113d757600080fd5b60065461141d670de0b6b3a764000061140f600754611401866005546116bd90919063ffffffff16565b61184b90919063ffffffff16565b61188690919063ffffffff16565b1115151561142a57600080fd5b600a60019054906101000a900460ff1615806114a75750600a60019054906101000a900460ff1680156114a65750600b60008373ffffffffffffffffffffffffffffffffffffffff1673ffffffffffffffffffffffffffffffffffffffff16815260200190815260200160002060009054906101000a900460ff165b5b15156114b257600080fd5b5050565b6000806000806114d16004548661184b90919063ffffffff16565b9250829150611505670de0b6b3a76400006114f76007548861184b90919063ffffffff16565b61188690919063ffffffff16565b9050600a60019054906101000a900460ff16151561164a5762030d4081101515611569576115626115536064611545600a8761184b90919063ffffffff16565b61188690919063ffffffff16565b836116bd90919063ffffffff16565b9150611649565b61c350811015156115b4576115ad61159e606461159060078761184b90919063ffffffff16565b61188690919063ffffffff16565b836116bd90919063ffffffff16565b9150611648565b614e20811015156115ff576115f86115e960646115db60058761184b90919063ffffffff16565b61188690919063ffffffff16565b836116bd90919063ffffffff16565b9150611647565b6113888110151561164657611643611634606461162660038761184b90919063ffffffff16565b61188690919063ffffffff16565b836116bd90919063ffffffff16565b91505b5b5b5b5b6000600a60009054906101000a900460ff1660ff1611156116b2576116af6116a06064611692600a60009054906101000a900460ff1660ff168761184b90919063ffffffff16565b61188690919063ffffffff16565b836116bd90919063ffffffff16565b91505b819350505050919050565b60008082840190508381101515156116d157fe5b8091505092915050565b600160009054906101000a900473ffffffffffffffffffffffffffffffffffffffff1673ffffffffffffffffffffffffffffffffffffffff1663a9059cbb83836040518363ffffffff167c0100000000000000000000000000000000000000000000000000000000028152600401808373ffffffffffffffffffffffffffffffffffffffff1673ffffffffffffffffffffffffffffffffffffffff16815260200182815260200192505050602060405180830381600087803b1580156117a057600080fd5b505af11580156117b4573d6000803e3d6000fd5b505050506040513d60208110156117ca57600080fd5b8101908080519060200190929190505050505050565b600260009054906101000a900473ffffffffffffffffffffffffffffffffffffffff1673ffffffffffffffffffffffffffffffffffffffff166108fc349081150290604051600060405180830381858888f19350505050158015611848573d6000803e3d6000fd5b50565b6000806000841415611860576000915061187f565b828402905082848281151561187157fe5b0414151561187b57fe5b8091505b5092915050565b600080828481151561189457fe5b04905080915050929150505600a165627a7a72305820bb75220ba6802d185de2599278382e0a7a4037fb06fb1ab1ca34bcd0bdec33280029",
  "source": "pragma solidity ^0.4.23;\n\nlibrary SafeMath {\n    function mul(uint256 a, uint256 b) internal pure returns (uint256) {\n        if (a == 0) {\n            return 0;\n        }\n        uint256 c = a * b;\n        assert(c / a == b);\n        return c;\n    }\n    function div(uint256 a, uint256 b) internal pure returns (uint256) {\n        uint256 c = a / b;\n        return c;\n    }\n\n    function sub(uint256 a, uint256 b) internal pure returns (uint256) {\n        assert(b <= a);\n        return a - b;\n    }\n\n    function add(uint256 a, uint256 b) internal pure returns (uint256) {\n        uint256 c = a + b;\n        assert(c >= a);\n        return c;\n    }\n}\n\ninterface ERC20 {\n    function transfer (address _beneficiary, uint256 _tokenAmount) external returns (bool);\n    function sendToSaleAgent (address _saleAgent, uint256 _value) external;\n}\n\ncontract Ownable {\n    address public owner;\n\n    constructor() public {\n        owner = msg.sender;\n    }\n\n    modifier onlyOwner() {\n        require(msg.sender == owner);\n        _;\n    }\n}\n\ncontract Crowdsale is Ownable {\n    using SafeMath for uint256;\n\n    modifier onlyWhileOpen {\n        require(now >= startDate && now < endDate);\n        _;\n    }\n\n    // The token being sold\n    ERC20 public token;\n\n    // Address where funds are collected\n    address public wallet;\n\n    // Адрес оператора бекЭнда для управления вайтлистом\n    address public backendOperator = msg.sender;\n\n    // Сколько токенов покупатель получает за 1 эфир\n    uint256 public rate;\n\n    // Amount of wei raised\n    uint256 public weiRaised;\n\n    // Потолок привлечения средств в ходе ICO в $\n    uint256 public hardcap;\n\n    // Цена ETH в $\n    uint256 public ETHUSD;\n\n    // Дата начала\n    uint256 public startDate;\n\n    // Дата окончания\n    uint256 public endDate;\n\n    // Бонус за этап, %\n    uint8 public stageBonus;\n\n    // Является ли текущий этап - PreICO\n    bool public isPreICO;\n\n    // Завершился ли этап\n    bool public isFinalized = false;\n\n    // Whitelist\n    mapping(address => bool) public whitelist;\n\n    event TokenPurchase(address indexed purchaser, address indexed beneficiary, uint256 value, uint256 amount);\n    event Finalized();\n\n    constructor(\n        uint256 _rate,\n        address _wallet,\n        uint256 _startDate,\n        uint256 _endDate,\n        bool _isPreICO,\n        uint256 _hardcap,\n        uint8 _stageBonus\n    ) public {\n        require(_rate > 0);\n        require(_endDate >= _startDate);\n        require(_hardcap > 0);\n\n        rate = _rate;\n        wallet = _wallet;\n        startDate = _startDate;\n        endDate = _endDate;\n        isPreICO = _isPreICO;\n        hardcap = _hardcap;\n\n        if(isPreICO){\n            stageBonus = 30;\n        }else{\n            stageBonus = _stageBonus;\n        }\n    }\n\n    modifier backEnd() {\n        require(msg.sender == backendOperator || msg.sender == owner);\n        _;\n    }\n\n    // Установить кошелек для сбора средств\n    function setWallet (uint16 _wallet) public onlyOwner {\n        wallet = _wallet;\n    }\n\n    // Установить стоимость токена\n    function setRate (uint16 _rate) public onlyOwner {\n        require(_rate > 0);\n        rate = _rate;\n    }\n\n    // Установить торгуемй токен\n    function setToken (ERC20 _token) public onlyOwner {\n        token = _token;\n    }\n\n    // Установить hardcap в $\n    function setHardcap (uint256 _hardcap) public onlyOwner {\n        hardcap = _hardcap;\n    }\n\n    // Установить дату начала\n    function setStartDate (uint256 _startDate) public onlyOwner {\n        require(_startDate < endDate);\n        startDate = _startDate;\n    }\n\n    // Установить дату окончания\n    function setEndDate (uint256 _endDate) public onlyOwner {\n        require(_endDate > startDate);\n        endDate = _endDate;\n    }\n\n    // Установить стоимость эфира в центах\n    function setETHUSD (uint256 _ETHUSD) public onlyOwner {\n        ETHUSD = _ETHUSD;\n    }\n\n    // Установить оператора БекЭнда для управления вайтлистом\n    function setBackendOperator(address newOperator) public onlyOwner {\n        backendOperator = newOperator;\n    }\n\n    // Получить токены для продажи\n    function getTokens (uint256 _amount) public onlyOwner {\n        token.sendToSaleAgent(this, _amount);\n    }\n\n    function () external payable {\n        buyTokens(msg.sender);\n    }\n\n    // Покупка токенов\n    function buyTokens(address _beneficiary) public payable {\n\n        uint256 weiAmount = msg.value;\n        _preValidatePurchase(_beneficiary, weiAmount);\n\n        // Считаем сколько токенов перевести\n        uint256 tokens = _getTokenAmountWithBonus(weiAmount);\n\n        // update state\n        weiRaised = weiRaised.add(weiAmount);\n\n        _deliverTokens(_beneficiary, tokens);\n\n        emit TokenPurchase(msg.sender, _beneficiary, weiAmount, tokens);\n\n        _forwardFunds();\n    }\n\n    // Добавить адрес в whitelist\n    function addToWhitelist(address _beneficiary) public backEnd {\n        whitelist[_beneficiary] = true;\n    }\n\n    // Добавить несколько адресов в whitelist\n    function addManyToWhitelist(address[] _beneficiaries) public backEnd {\n        for (uint256 i = 0; i < _beneficiaries.length; i++) {\n            whitelist[_beneficiaries[i]] = true;\n        }\n    }\n\n    // Исключить адрес из whitelist\n    function removeFromWhitelist(address _beneficiary) external backEnd {\n        whitelist[_beneficiary] = false;\n    }\n\n    // Узнать истек ли срок проведения\n    function hasClosed() public view returns (bool) {\n        return now > endDate;\n    }\n\n    // Завершить этап ICO\n    function finalize() onlyOwner public {\n        require(!isFinalized);\n        require(hasClosed());\n\n        emit Finalized();\n        isFinalized = true;\n    }\n\n    /*\n     * Внутренние методы\n     */\n\n    // Валидация перед покупкой токенов\n    function _preValidatePurchase(address _beneficiary, uint256 _weiAmount) internal view onlyWhileOpen {\n        require(!isFinalized);\n        require(_beneficiary != address(0));\n        require(_weiAmount != 0);\n        require(weiRaised.add(_weiAmount).mul(ETHUSD).div(10**18) <= hardcap);\n        require(!isPreICO || (isPreICO && whitelist[_beneficiary]));\n    }\n\n    // Подсчет количества токенов в зависимости от суммы платежа и бонусных программ\n    function _getTokenAmountWithBonus(uint256 _weiAmount) internal view returns(uint256) {\n        uint256 baseTokenAmount = _weiAmount.mul(rate);\n        uint256 tokenAmount = baseTokenAmount;\n        uint256 usdAmount = _weiAmount.mul(ETHUSD).div(10**18);\n\n        // Считаем бонусы за объем инвестиций, если это не этап PreICO\n        if(!isPreICO){\n            if(usdAmount >= 200000){\n                tokenAmount = tokenAmount.add(baseTokenAmount.mul(10).div(100));\n            } else if(usdAmount >= 50000){\n                tokenAmount = tokenAmount.add(baseTokenAmount.mul(7).div(100));\n            } else if(usdAmount >= 20000){\n                tokenAmount = tokenAmount.add(baseTokenAmount.mul(5).div(100));\n            } else if(usdAmount >= 5000){\n                tokenAmount = tokenAmount.add(baseTokenAmount.mul(3).div(100));\n            }\n        }\n\n        // Считаем бонусы за этап ICO\n        if(stageBonus > 0){\n            tokenAmount = tokenAmount.add(baseTokenAmount.mul(stageBonus).div(100));\n        }\n        return tokenAmount;\n    }\n\n    // Перевод токенов\n    function _deliverTokens(address _beneficiary, uint256 _tokenAmount) internal {\n        token.transfer(_beneficiary, _tokenAmount);\n    }\n\n    // Перевод средств на кошелек компании\n    function _forwardFunds() internal {\n        wallet.transfer(msg.value);\n    }\n}",
  "sourcePath": "/Users/ivanborisov/Yandex.Disk.localized/IT/WorkProjects/New_Legal_Tech/Gold_smart/contracts/Crowdsale.sol",
  "compiler": {
    "name": "solc",
    "version": "0.4.23+commit.124ca40d.Emscripten.clang"
  },
  "schemaVersion": "2.0.0",
  "updatedAt": "2018-05-31T07:58:19.287Z"
}