{
  "contractName": "Crowdsale",
  "abi": [
    {
      "constant": true,
      "inputs": [],
      "name": "startDate",
      "outputs": [
        {
          "name": "",
          "type": "uint256"
        }
      ],
      "payable": false,
      "stateMutability": "view",
      "type": "function"
    },
    {
      "constant": false,
      "inputs": [
        {
          "name": "_token",
          "type": "address"
        }
      ],
      "name": "setToken",
      "outputs": [],
      "payable": false,
      "stateMutability": "nonpayable",
      "type": "function"
    },
    {
      "constant": true,
      "inputs": [],
      "name": "hasClosed",
      "outputs": [
        {
          "name": "",
          "type": "bool"
        }
      ],
      "payable": false,
      "stateMutability": "view",
      "type": "function"
    },
    {
      "constant": true,
      "inputs": [],
      "name": "stageBonus",
      "outputs": [
        {
          "name": "",
          "type": "uint8"
        }
      ],
      "payable": false,
      "stateMutability": "view",
      "type": "function"
    },
    {
      "constant": true,
      "inputs": [],
      "name": "rate",
      "outputs": [
        {
          "name": "",
          "type": "uint256"
        }
      ],
      "payable": false,
      "stateMutability": "view",
      "type": "function"
    },
    {
      "constant": false,
      "inputs": [
        {
          "name": "_endDate",
          "type": "uint256"
        }
      ],
      "name": "setEndDate",
      "outputs": [],
      "payable": false,
      "stateMutability": "nonpayable",
      "type": "function"
    },
    {
      "constant": true,
      "inputs": [],
      "name": "weiRaised",
      "outputs": [
        {
          "name": "",
          "type": "uint256"
        }
      ],
      "payable": false,
      "stateMutability": "view",
      "type": "function"
    },
    {
      "constant": false,
      "inputs": [],
      "name": "finalize",
      "outputs": [],
      "payable": false,
      "stateMutability": "nonpayable",
      "type": "function"
    },
    {
      "constant": true,
      "inputs": [],
      "name": "wallet",
      "outputs": [
        {
          "name": "",
          "type": "address"
        }
      ],
      "payable": false,
      "stateMutability": "view",
      "type": "function"
    },
    {
      "constant": true,
      "inputs": [],
      "name": "ETHUSD",
      "outputs": [
        {
          "name": "",
          "type": "uint256"
        }
      ],
      "payable": false,
      "stateMutability": "view",
      "type": "function"
    },
    {
      "constant": false,
      "inputs": [
        {
          "name": "_startDate",
          "type": "uint256"
        }
      ],
      "name": "setStartDate",
      "outputs": [],
      "payable": false,
      "stateMutability": "nonpayable",
      "type": "function"
    },
    {
      "constant": false,
      "inputs": [
        {
          "name": "_beneficiary",
          "type": "address"
        }
      ],
      "name": "removeFromWhitelist",
      "outputs": [],
      "payable": false,
      "stateMutability": "nonpayable",
      "type": "function"
    },
    {
      "constant": false,
      "inputs": [
        {
          "name": "_beneficiaries",
          "type": "address[]"
        }
      ],
      "name": "addManyToWhitelist",
      "outputs": [],
      "payable": false,
      "stateMutability": "nonpayable",
      "type": "function"
    },
    {
      "constant": true,
      "inputs": [],
      "name": "isFinalized",
      "outputs": [
        {
          "name": "",
          "type": "bool"
        }
      ],
      "payable": false,
      "stateMutability": "view",
      "type": "function"
    },
    {
      "constant": true,
      "inputs": [],
      "name": "owner",
      "outputs": [
        {
          "name": "",
          "type": "address"
        }
      ],
      "payable": false,
      "stateMutability": "view",
      "type": "function"
    },
    {
      "constant": true,
      "inputs": [
        {
          "name": "",
          "type": "address"
        }
      ],
      "name": "whitelist",
      "outputs": [
        {
          "name": "",
          "type": "bool"
        }
      ],
      "payable": false,
      "stateMutability": "view",
      "type": "function"
    },
    {
      "constant": true,
      "inputs": [],
      "name": "hardcap",
      "outputs": [
        {
          "name": "",
          "type": "uint256"
        }
      ],
      "payable": false,
      "stateMutability": "view",
      "type": "function"
    },
    {
      "constant": true,
      "inputs": [],
      "name": "isPreICO",
      "outputs": [
        {
          "name": "",
          "type": "bool"
        }
      ],
      "payable": false,
      "stateMutability": "view",
      "type": "function"
    },
    {
      "constant": true,
      "inputs": [],
      "name": "endDate",
      "outputs": [
        {
          "name": "",
          "type": "uint256"
        }
      ],
      "payable": false,
      "stateMutability": "view",
      "type": "function"
    },
    {
      "constant": false,
      "inputs": [
        {
          "name": "_amount",
          "type": "uint256"
        }
      ],
      "name": "getTokens",
      "outputs": [],
      "payable": false,
      "stateMutability": "nonpayable",
      "type": "function"
    },
    {
      "constant": false,
      "inputs": [
        {
          "name": "_ETHUSD",
          "type": "uint256"
        }
      ],
      "name": "setETHUSD",
      "outputs": [],
      "payable": false,
      "stateMutability": "nonpayable",
      "type": "function"
    },
    {
      "constant": false,
      "inputs": [
        {
          "name": "_hardcap",
          "type": "uint256"
        }
      ],
      "name": "setHardcap",
      "outputs": [],
      "payable": false,
      "stateMutability": "nonpayable",
      "type": "function"
    },
    {
      "constant": false,
      "inputs": [
        {
          "name": "_beneficiary",
          "type": "address"
        }
      ],
      "name": "addToWhitelist",
      "outputs": [],
      "payable": false,
      "stateMutability": "nonpayable",
      "type": "function"
    },
    {
      "constant": false,
      "inputs": [
        {
          "name": "_beneficiary",
          "type": "address"
        }
      ],
      "name": "buyTokens",
      "outputs": [],
      "payable": true,
      "stateMutability": "payable",
      "type": "function"
    },
    {
      "constant": true,
      "inputs": [],
      "name": "token",
      "outputs": [
        {
          "name": "",
          "type": "address"
        }
      ],
      "payable": false,
      "stateMutability": "view",
      "type": "function"
    },
    {
      "inputs": [
        {
          "name": "_rate",
          "type": "uint256"
        },
        {
          "name": "_wallet",
          "type": "address"
        },
        {
          "name": "_startDate",
          "type": "uint256"
        },
        {
          "name": "_endDate",
          "type": "uint256"
        },
        {
          "name": "_isPreICO",
          "type": "bool"
        },
        {
          "name": "_stageBonus",
          "type": "uint8"
        }
      ],
      "payable": false,
      "stateMutability": "nonpayable",
      "type": "constructor"
    },
    {
      "payable": true,
      "stateMutability": "payable",
      "type": "fallback"
    },
    {
      "anonymous": false,
      "inputs": [
        {
          "indexed": true,
          "name": "purchaser",
          "type": "address"
        },
        {
          "indexed": true,
          "name": "beneficiary",
          "type": "address"
        },
        {
          "indexed": false,
          "name": "value",
          "type": "uint256"
        },
        {
          "indexed": false,
          "name": "amount",
          "type": "uint256"
        }
      ],
      "name": "TokenPurchase",
      "type": "event"
    },
    {
      "anonymous": false,
      "inputs": [],
      "name": "Finalized",
      "type": "event"
    }
  ],
  "bytecode": "0x60606040526000600960026101000a81548160ff021916908315150217905550341561002a57600080fd5b60405160c0806115e583398101604052808051906020019091908051906020019091908051906020019091908051906020019091908051906020019091908051906020019091905050336000806101000a81548173ffffffffffffffffffffffffffffffffffffffff021916908373ffffffffffffffffffffffffffffffffffffffff1602179055506000861115156100c257600080fd5b600073ffffffffffffffffffffffffffffffffffffffff168573ffffffffffffffffffffffffffffffffffffffff16141515156100fe57600080fd5b42607885011015151561011057600080fd5b83831015151561011f57600080fd5b8560038190555084600260006101000a81548173ffffffffffffffffffffffffffffffffffffffff021916908373ffffffffffffffffffffffffffffffffffffffff160217905550836007819055508260088190555081600960016101000a81548160ff021916908315150217905550600960019054906101000a900460ff16156101c557601e600960006101000a81548160ff021916908360ff1602179055506101e1565b80600960006101000a81548160ff021916908360ff1602179055505b5050505050506113ef806101f66000396000f300606060405260043610610149576000357c0100000000000000000000000000000000000000000000000000000000900463ffffffff1680630b97bc8614610154578063144fa6d71461017d5780631515bc2b146101b65780631e6d4180146101e35780632c4e722e146102125780633784f0001461023b5780634042b66f1461025e5780634bb278f314610287578063521eb2731461029c57806373db0844146102f157806382d95df51461031a5780638ab1d6811461033d5780638c10671c146103765780638d4e4083146103d05780638da5cb5b146103fd5780639b19251a14610452578063b071cbe6146104a3578063b60f5b91146104cc578063c24a0f8b146104f9578063d3c9cc2614610522578063e230dfbd14610545578063e28fa27d14610568578063e43252d71461058b578063ec8ac4d8146105c4578063fc0c546a146105f2575b61015233610647565b005b341561015f57600080fd5b610167610701565b6040518082815260200191505060405180910390f35b341561018857600080fd5b6101b4600480803573ffffffffffffffffffffffffffffffffffffffff16906020019091905050610707565b005b34156101c157600080fd5b6101c96107a6565b604051808215151515815260200191505060405180910390f35b34156101ee57600080fd5b6101f66107b2565b604051808260ff1660ff16815260200191505060405180910390f35b341561021d57600080fd5b6102256107c5565b6040518082815260200191505060405180910390f35b341561024657600080fd5b61025c60048080359060200190919050506107cb565b005b341561026957600080fd5b610271610840565b6040518082815260200191505060405180910390f35b341561029257600080fd5b61029a610846565b005b34156102a757600080fd5b6102af610919565b604051808273ffffffffffffffffffffffffffffffffffffffff1673ffffffffffffffffffffffffffffffffffffffff16815260200191505060405180910390f35b34156102fc57600080fd5b61030461093f565b6040518082815260200191505060405180910390f35b341561032557600080fd5b61033b6004808035906020019091905050610945565b005b341561034857600080fd5b610374600480803573ffffffffffffffffffffffffffffffffffffffff169060200190919050506109ba565b005b341561038157600080fd5b6103ce600480803590602001908201803590602001908080602002602001604051908101604052809392919081815260200183836020028082843782019150505050505091905050610a70565b005b34156103db57600080fd5b6103e3610b5b565b604051808215151515815260200191505060405180910390f35b341561040857600080fd5b610410610b6e565b604051808273ffffffffffffffffffffffffffffffffffffffff1673ffffffffffffffffffffffffffffffffffffffff16815260200191505060405180910390f35b341561045d57600080fd5b610489600480803573ffffffffffffffffffffffffffffffffffffffff16906020019091905050610b93565b604051808215151515815260200191505060405180910390f35b34156104ae57600080fd5b6104b6610bb3565b6040518082815260200191505060405180910390f35b34156104d757600080fd5b6104df610bb9565b604051808215151515815260200191505060405180910390f35b341561050457600080fd5b61050c610bcc565b6040518082815260200191505060405180910390f35b341561052d57600080fd5b6105436004808035906020019091905050610bd2565b005b341561055057600080fd5b6105666004808035906020019091905050610d08565b005b341561057357600080fd5b6105896004808035906020019091905050610d6d565b005b341561059657600080fd5b6105c2600480803573ffffffffffffffffffffffffffffffffffffffff16906020019091905050610ddc565b005b6105f0600480803573ffffffffffffffffffffffffffffffffffffffff16906020019091905050610647565b005b34156105fd57600080fd5b610605610e92565b604051808273ffffffffffffffffffffffffffffffffffffffff1673ffffffffffffffffffffffffffffffffffffffff16815260200191505060405180910390f35b6000803491506106578383610eb8565b61066082610ff3565b9050610677826004546111fe90919063ffffffff16565b600481905550610687838261121c565b8273ffffffffffffffffffffffffffffffffffffffff163373ffffffffffffffffffffffffffffffffffffffff167f623b3804fa71d67900d064613da8f94b9617215ee90799290593e1745087ad188484604051808381526020018281526020019250505060405180910390a36106fc611309565b505050565b60075481565b6000809054906101000a900473ffffffffffffffffffffffffffffffffffffffff1673ffffffffffffffffffffffffffffffffffffffff163373ffffffffffffffffffffffffffffffffffffffff1614151561076257600080fd5b80600160006101000a81548173ffffffffffffffffffffffffffffffffffffffff021916908373ffffffffffffffffffffffffffffffffffffffff16021790555050565b60006008544211905090565b600960009054906101000a900460ff1681565b60035481565b6000809054906101000a900473ffffffffffffffffffffffffffffffffffffffff1673ffffffffffffffffffffffffffffffffffffffff163373ffffffffffffffffffffffffffffffffffffffff1614151561082657600080fd5b6007548111151561083657600080fd5b8060088190555050565b60045481565b6000809054906101000a900473ffffffffffffffffffffffffffffffffffffffff1673ffffffffffffffffffffffffffffffffffffffff163373ffffffffffffffffffffffffffffffffffffffff161415156108a157600080fd5b600960029054906101000a900460ff161515156108bd57600080fd5b6108c56107a6565b15156108d057600080fd5b7f6823b073d48d6e3a7d385eeb601452d680e74bb46afe3255a7d778f3a9b1768160405160405180910390a16001600960026101000a81548160ff021916908315150217905550565b600260009054906101000a900473ffffffffffffffffffffffffffffffffffffffff1681565b60065481565b6000809054906101000a900473ffffffffffffffffffffffffffffffffffffffff1673ffffffffffffffffffffffffffffffffffffffff163373ffffffffffffffffffffffffffffffffffffffff161415156109a057600080fd5b600854811015156109b057600080fd5b8060078190555050565b6000809054906101000a900473ffffffffffffffffffffffffffffffffffffffff1673ffffffffffffffffffffffffffffffffffffffff163373ffffffffffffffffffffffffffffffffffffffff16141515610a1557600080fd5b6000600a60008373ffffffffffffffffffffffffffffffffffffffff1673ffffffffffffffffffffffffffffffffffffffff16815260200190815260200160002060006101000a81548160ff02191690831515021790555050565b60008060009054906101000a900473ffffffffffffffffffffffffffffffffffffffff1673ffffffffffffffffffffffffffffffffffffffff163373ffffffffffffffffffffffffffffffffffffffff16141515610acd57600080fd5b600090505b8151811015610b57576001600a60008484815181101515610aef57fe5b9060200190602002015173ffffffffffffffffffffffffffffffffffffffff1673ffffffffffffffffffffffffffffffffffffffff16815260200190815260200160002060006101000a81548160ff0219169083151502179055508080600101915050610ad2565b5050565b600960029054906101000a900460ff1681565b6000809054906101000a900473ffffffffffffffffffffffffffffffffffffffff1681565b600a6020528060005260406000206000915054906101000a900460ff1681565b60055481565b600960019054906101000a900460ff1681565b60085481565b6000809054906101000a900473ffffffffffffffffffffffffffffffffffffffff1673ffffffffffffffffffffffffffffffffffffffff163373ffffffffffffffffffffffffffffffffffffffff16141515610c2d57600080fd5b600160009054906101000a900473ffffffffffffffffffffffffffffffffffffffff1673ffffffffffffffffffffffffffffffffffffffff1663a61fd1a230836040518363ffffffff167c0100000000000000000000000000000000000000000000000000000000028152600401808373ffffffffffffffffffffffffffffffffffffffff1673ffffffffffffffffffffffffffffffffffffffff16815260200182815260200192505050600060405180830381600087803b1515610cf157600080fd5b6102c65a03f11515610d0257600080fd5b50505050565b6000809054906101000a900473ffffffffffffffffffffffffffffffffffffffff1673ffffffffffffffffffffffffffffffffffffffff163373ffffffffffffffffffffffffffffffffffffffff16141515610d6357600080fd5b8060068190555050565b6000809054906101000a900473ffffffffffffffffffffffffffffffffffffffff1673ffffffffffffffffffffffffffffffffffffffff163373ffffffffffffffffffffffffffffffffffffffff16141515610dc857600080fd5b670de0b6b3a7640000810260058190555050565b6000809054906101000a900473ffffffffffffffffffffffffffffffffffffffff1673ffffffffffffffffffffffffffffffffffffffff163373ffffffffffffffffffffffffffffffffffffffff16141515610e3757600080fd5b6001600a60008373ffffffffffffffffffffffffffffffffffffffff1673ffffffffffffffffffffffffffffffffffffffff16815260200190815260200160002060006101000a81548160ff02191690831515021790555050565b600160009054906101000a900473ffffffffffffffffffffffffffffffffffffffff1681565b6078600754034210158015610ecf57506008544211155b1515610eda57600080fd5b600960029054906101000a900460ff16151515610ef657600080fd5b600073ffffffffffffffffffffffffffffffffffffffff168273ffffffffffffffffffffffffffffffffffffffff1614151515610f3257600080fd5b60008114151515610f4257600080fd5b600554610f5a826004546111fe90919063ffffffff16565b11151515610f6757600080fd5b600960019054906101000a900460ff161580610fe45750600960019054906101000a900460ff168015610fe35750600a60008373ffffffffffffffffffffffffffffffffffffffff1673ffffffffffffffffffffffffffffffffffffffff16815260200190815260200160002060009054906101000a900460ff165b5b1515610fef57600080fd5b5050565b60008060008061100e6003548661136d90919063ffffffff16565b9250829150611042670de0b6b3a76400006110346006548861136d90919063ffffffff16565b6113a890919063ffffffff16565b9050600960019054906101000a900460ff16151561118b576301312d00811015156110a7576110a06110916064611083600a8761136d90919063ffffffff16565b6113a890919063ffffffff16565b836111fe90919063ffffffff16565b915061118a565b624c4b40811015156110f3576110ec6110dd60646110cf60078761136d90919063ffffffff16565b6113a890919063ffffffff16565b836111fe90919063ffffffff16565b9150611189565b621e84808110151561113f57611138611129606461111b60058761136d90919063ffffffff16565b6113a890919063ffffffff16565b836111fe90919063ffffffff16565b9150611188565b6207a1208110151561118757611184611175606461116760038761136d90919063ffffffff16565b6113a890919063ffffffff16565b836111fe90919063ffffffff16565b91505b5b5b5b5b6000600960009054906101000a900460ff1660ff1611156111f3576111f06111e160646111d3600960009054906101000a900460ff1660ff168761136d90919063ffffffff16565b6113a890919063ffffffff16565b836111fe90919063ffffffff16565b91505b819350505050919050565b600080828401905083811015151561121257fe5b8091505092915050565b600160009054906101000a900473ffffffffffffffffffffffffffffffffffffffff1673ffffffffffffffffffffffffffffffffffffffff1663a9059cbb83836000604051602001526040518363ffffffff167c0100000000000000000000000000000000000000000000000000000000028152600401808373ffffffffffffffffffffffffffffffffffffffff1673ffffffffffffffffffffffffffffffffffffffff16815260200182815260200192505050602060405180830381600087803b15156112e957600080fd5b6102c65a03f115156112fa57600080fd5b50505060405180519050505050565b600260009054906101000a900473ffffffffffffffffffffffffffffffffffffffff1673ffffffffffffffffffffffffffffffffffffffff166108fc349081150290604051600060405180830381858888f19350505050151561136b57600080fd5b565b600080600084141561138257600091506113a1565b828402905082848281151561139357fe5b0414151561139d57fe5b8091505b5092915050565b60008082848115156113b657fe5b04905080915050929150505600a165627a7a72305820b23ad878ef4448dd6f8020401ad239a6dd879067f8920e49eb3726e079b394bb0029",
  "source": "pragma solidity ^0.4.18;\n\n\nlibrary SafeMath {\n    function mul(uint256 a, uint256 b) internal pure returns (uint256) {\n        if (a == 0) {\n            return 0;\n        }\n        uint256 c = a * b;\n        assert(c / a == b);\n        return c;\n    }\n    function div(uint256 a, uint256 b) internal pure returns (uint256) {\n        uint256 c = a / b;\n        return c;\n    }\n    function sub(uint256 a, uint256 b) internal pure returns (uint256) {\n        assert(b <= a);\n        return a - b;\n    }\n    function add(uint256 a, uint256 b) internal pure returns (uint256) {\n        uint256 c = a + b;\n        assert(c >= a);\n        return c;\n    }\n}\n\n\ninterface ERC20 {\n  function transfer (address _beneficiary, uint256 _tokenAmount) external returns (bool);  \n  function sendToSaleAgent (address _saleAgent, uint256 _value) external;\n}\n\n\ncontract Ownable {\n    address public owner;\n    function Ownable() public {\n        owner = msg.sender;\n    }\n    modifier onlyOwner() {\n        require(msg.sender == owner);\n        _;\n    }\n}\n\n\ncontract Crowdsale is Ownable {\n  using SafeMath for uint256;\n\n  modifier onlyWhileOpen {\n      require(now >= (startDate - 120) && now <= endDate);\n      _;\n  }\n\n  // The token being sold\n  ERC20 public token;\n\n  // Address where funds are collected\n  address public wallet;\n\n  // Сколько токенов покупатель получает за 1 эфир\n  uint256 public rate;\n\n  // Amount of wei raised\n  uint256 public weiRaised;\n\n  // Потолок привлечения средств в ходе ICO в wei\n  uint256 public hardcap;\n\n  // Цена ETH в центах\n  uint256 public ETHUSD;\n\n  // Дата начала\n  uint256 public startDate;\n\n  // Дата окончания\n  uint256 public endDate;\n\n  // Бонус за этап, %\n  uint8 public stageBonus;\n\n  // Является ли текущий этап - PreICO\n  bool public isPreICO;\n\n  // Завершился ли этап\n  bool public isFinalized = false;\n\n  // Whitelist\n  mapping(address => bool) public whitelist;\n\n  event TokenPurchase(address indexed purchaser, address indexed beneficiary, uint256 value, uint256 amount);\n  event Finalized();\n\n  function Crowdsale(\n    uint256 _rate, \n    address _wallet, \n    uint256 _startDate, \n    uint256 _endDate,\n    bool _isPreICO, \n    uint8 _stageBonus\n  ) public {\n    require(_rate > 0);\n    require(_wallet != address(0));\n    require(_startDate + 120 >= now);\n    require(_endDate >= _startDate);\n\n    rate = _rate;\n    wallet = _wallet;\n    startDate = _startDate;\n    endDate = _endDate;\n    isPreICO = _isPreICO;\n\n    if(isPreICO){\n      stageBonus = 30;\n    }else{\n      stageBonus = _stageBonus;\n    }\n  }\n\n  // Установить торгуемй токен\n  function setToken (ERC20 _token) public onlyOwner {\n    token = _token;\n  }\n  \n  // Установить hardcap в ether\n  function setHardcap (uint256 _hardcap) public onlyOwner {\n    hardcap = _hardcap * 1 ether;\n  }\n  \n\n  // Установить дату начала\n  function setStartDate (uint256 _startDate) public onlyOwner {\n    require(_startDate < endDate);\n    startDate = _startDate;\n  }\n\n  // Установить дату окончания\n  function setEndDate (uint256 _endDate) public onlyOwner {\n    require(_endDate > startDate);\n    endDate = _endDate;\n  }\n\n  // Установить стоимость эфира в центах\n  function setETHUSD (uint256 _ETHUSD) public onlyOwner {\n    ETHUSD = _ETHUSD;\n  }\n\n  // Получить токены для продажи\n  function getTokens (uint256 _amount) public onlyOwner {\n    token.sendToSaleAgent(this, _amount);\n  }\n\n  function () external payable {\n    buyTokens(msg.sender);\n  }\n\n  // Покупка токенов\n  function buyTokens(address _beneficiary) public payable {\n\n    uint256 weiAmount = msg.value;\n    _preValidatePurchase(_beneficiary, weiAmount);\n\n    // Считаем сколько токенов перевести\n    uint256 tokens = _getTokenAmountWithBonus(weiAmount);\n\n    // update state\n    weiRaised = weiRaised.add(weiAmount);\n\n    _deliverTokens(_beneficiary, tokens);\n\n    TokenPurchase(msg.sender, _beneficiary, weiAmount, tokens);\n\n    _forwardFunds();\n  }\n\n  // Добавить адрес в whitelist\n  function addToWhitelist(address _beneficiary) public onlyOwner {\n    whitelist[_beneficiary] = true;\n  }\n\n  // Добавить несколько адресов в whitelist\n  function addManyToWhitelist(address[] _beneficiaries) public onlyOwner {\n    for (uint256 i = 0; i < _beneficiaries.length; i++) {\n      whitelist[_beneficiaries[i]] = true;\n    }\n  }\n\n  // Исключить адрес из whitelist\n  function removeFromWhitelist(address _beneficiary) external onlyOwner {\n    whitelist[_beneficiary] = false;\n  }\n\n  // Узнать истек ли срок проведения\n  function hasClosed() public view returns (bool) {\n    return now > endDate;\n  }\n\n  // Завершить этап ICO\n  function finalize() onlyOwner public {\n      require(!isFinalized);\n      require(hasClosed());\n\n      Finalized();\n      isFinalized = true;\n  }\n\n  /*\n   * Внутренние методы\n   */\n\n   // Валидация перед покупкой токенов\n  function _preValidatePurchase(address _beneficiary, uint256 _weiAmount) internal view onlyWhileOpen {\n    require(!isFinalized);\n    require(_beneficiary != address(0));\n    require(_weiAmount != 0);\n    require(weiRaised.add(_weiAmount) <= hardcap);\n    require(!isPreICO || (isPreICO && whitelist[_beneficiary]));\n  }\n\n  // Подсчет количества токенов в зависимости от суммы платежа и бонусных программ\n  function _getTokenAmountWithBonus(uint256 _weiAmount) internal view returns(uint256) {\n    uint256 baseTokenAmount = _weiAmount.mul(rate);\n    uint256 tokenAmount = baseTokenAmount;\n    uint256 usdAmount = _weiAmount.mul(ETHUSD).div(10**18);\n\n    // Считаем бонусы за объем инвестиций, если это не этап PreICO\n    if(!isPreICO){\n      if(usdAmount >= 20000000){\n        tokenAmount = tokenAmount.add(baseTokenAmount.mul(10).div(100));\n      } else if(usdAmount >= 5000000){\n        tokenAmount = tokenAmount.add(baseTokenAmount.mul(7).div(100));\n      } else if(usdAmount >= 2000000){\n        tokenAmount = tokenAmount.add(baseTokenAmount.mul(5).div(100));\n      } else if(usdAmount >= 500000){\n        tokenAmount = tokenAmount.add(baseTokenAmount.mul(3).div(100));\n      }\n    }\n\n    // Считаем бонусы за этап ICO\n    if(stageBonus > 0){\n      tokenAmount = tokenAmount.add(baseTokenAmount.mul(stageBonus).div(100));\n    }\n    return tokenAmount;\n  }\n\n  // Перевод токенов\n  function _deliverTokens(address _beneficiary, uint256 _tokenAmount) internal {\n    token.transfer(_beneficiary, _tokenAmount);\n  }\n\n  // Перевод средств на кошелек компании\n  function _forwardFunds() internal {\n    wallet.transfer(msg.value);\n  }\n}",
  "sourcePath": "/Users/vlasnikita/Documents/elephant/Gold_smart/contracts/Crowdsale.sol",
  "compiler": {
    "name": "solc",
    "version": "0.4.19+commit.c4cbbb05.Emscripten.clang"
  },
  "schemaVersion": "1.0.1",
  "updatedAt": "2018-03-27T08:38:34.890Z"
}