{
  "contractName": "TwoStageMainSale",
  "abi": [
    {
      "constant": true,
      "inputs": [],
      "name": "start2StageSale",
      "outputs": [
        {
          "name": "",
          "type": "uint256"
        }
      ],
      "payable": false,
      "stateMutability": "view",
      "type": "function"
    },
    {
      "constant": true,
      "inputs": [],
      "name": "backEndOperator",
      "outputs": [
        {
          "name": "",
          "type": "address"
        }
      ],
      "payable": false,
      "stateMutability": "view",
      "type": "function"
    },
    {
      "constant": true,
      "inputs": [
        {
          "name": "",
          "type": "address"
        }
      ],
      "name": "investedEther",
      "outputs": [
        {
          "name": "",
          "type": "uint256"
        }
      ],
      "payable": false,
      "stateMutability": "view",
      "type": "function"
    },
    {
      "constant": true,
      "inputs": [],
      "name": "dollarPrice",
      "outputs": [
        {
          "name": "",
          "type": "uint256"
        }
      ],
      "payable": false,
      "stateMutability": "view",
      "type": "function"
    },
    {
      "constant": true,
      "inputs": [],
      "name": "softCap2Stage",
      "outputs": [
        {
          "name": "",
          "type": "uint256"
        }
      ],
      "payable": false,
      "stateMutability": "view",
      "type": "function"
    },
    {
      "constant": true,
      "inputs": [],
      "name": "soldTokens",
      "outputs": [
        {
          "name": "",
          "type": "uint256"
        }
      ],
      "payable": false,
      "stateMutability": "view",
      "type": "function"
    },
    {
      "constant": true,
      "inputs": [],
      "name": "buyPrice",
      "outputs": [
        {
          "name": "",
          "type": "uint256"
        }
      ],
      "payable": false,
      "stateMutability": "view",
      "type": "function"
    },
    {
      "constant": true,
      "inputs": [],
      "name": "investors",
      "outputs": [
        {
          "name": "",
          "type": "uint256"
        }
      ],
      "payable": false,
      "stateMutability": "view",
      "type": "function"
    },
    {
      "constant": true,
      "inputs": [],
      "name": "owner",
      "outputs": [
        {
          "name": "",
          "type": "address"
        }
      ],
      "payable": false,
      "stateMutability": "view",
      "type": "function"
    },
    {
      "constant": true,
      "inputs": [
        {
          "name": "",
          "type": "address"
        }
      ],
      "name": "whitelist",
      "outputs": [
        {
          "name": "",
          "type": "bool"
        }
      ],
      "payable": false,
      "stateMutability": "view",
      "type": "function"
    },
    {
      "constant": true,
      "inputs": [],
      "name": "hardCap2Stage",
      "outputs": [
        {
          "name": "",
          "type": "uint256"
        }
      ],
      "payable": false,
      "stateMutability": "view",
      "type": "function"
    },
    {
      "constant": true,
      "inputs": [],
      "name": "end2StageSale",
      "outputs": [
        {
          "name": "",
          "type": "uint256"
        }
      ],
      "payable": false,
      "stateMutability": "view",
      "type": "function"
    },
    {
      "constant": true,
      "inputs": [],
      "name": "weisRaised",
      "outputs": [
        {
          "name": "",
          "type": "uint256"
        }
      ],
      "payable": false,
      "stateMutability": "view",
      "type": "function"
    },
    {
      "constant": true,
      "inputs": [],
      "name": "token",
      "outputs": [
        {
          "name": "",
          "type": "address"
        }
      ],
      "payable": false,
      "stateMutability": "view",
      "type": "function"
    },
    {
      "inputs": [
        {
          "name": "_token",
          "type": "address"
        },
        {
          "name": "usdETH",
          "type": "uint256"
        }
      ],
      "payable": false,
      "stateMutability": "nonpayable",
      "type": "constructor"
    },
    {
      "payable": true,
      "stateMutability": "payable",
      "type": "fallback"
    },
    {
      "anonymous": false,
      "inputs": [
        {
          "indexed": false,
          "name": "wlCandidate",
          "type": "address"
        },
        {
          "indexed": false,
          "name": "timestamp",
          "type": "uint256"
        }
      ],
      "name": "Authorized",
      "type": "event"
    },
    {
      "anonymous": false,
      "inputs": [
        {
          "indexed": false,
          "name": "wlCandidate",
          "type": "address"
        },
        {
          "indexed": false,
          "name": "timestamp",
          "type": "uint256"
        }
      ],
      "name": "Revoked",
      "type": "event"
    },
    {
      "anonymous": false,
      "inputs": [
        {
          "indexed": false,
          "name": "time",
          "type": "uint256"
        },
        {
          "indexed": false,
          "name": "_rate",
          "type": "uint256"
        }
      ],
      "name": "UpdateDollar",
      "type": "event"
    },
    {
      "constant": false,
      "inputs": [
        {
          "name": "newStart2Sale",
          "type": "uint256"
        }
      ],
      "name": "setStartTwoSale",
      "outputs": [],
      "payable": false,
      "stateMutability": "nonpayable",
      "type": "function"
    },
    {
      "constant": false,
      "inputs": [
        {
          "name": "newEnd2Sale",
          "type": "uint256"
        }
      ],
      "name": "setEndTwoSale",
      "outputs": [],
      "payable": false,
      "stateMutability": "nonpayable",
      "type": "function"
    },
    {
      "constant": false,
      "inputs": [
        {
          "name": "newBackEndOperator",
          "type": "address"
        }
      ],
      "name": "setBackEndAddress",
      "outputs": [],
      "payable": false,
      "stateMutability": "nonpayable",
      "type": "function"
    },
    {
      "constant": false,
      "inputs": [
        {
          "name": "_dollar",
          "type": "uint256"
        }
      ],
      "name": "setBuyPrice",
      "outputs": [],
      "payable": false,
      "stateMutability": "nonpayable",
      "type": "function"
    },
    {
      "constant": false,
      "inputs": [
        {
          "name": "wlCandidate",
          "type": "address"
        }
      ],
      "name": "authorize",
      "outputs": [],
      "payable": false,
      "stateMutability": "nonpayable",
      "type": "function"
    },
    {
      "constant": false,
      "inputs": [
        {
          "name": "wlCandidate",
          "type": "address"
        }
      ],
      "name": "revoke",
      "outputs": [],
      "payable": false,
      "stateMutability": "nonpayable",
      "type": "function"
    },
    {
      "constant": true,
      "inputs": [],
      "name": "isTwoStageSale",
      "outputs": [
        {
          "name": "",
          "type": "bool"
        }
      ],
      "payable": false,
      "stateMutability": "view",
      "type": "function"
    },
    {
      "constant": false,
      "inputs": [
        {
          "name": "_to",
          "type": "address"
        },
        {
          "name": "amount",
          "type": "uint256"
        }
      ],
      "name": "transferEthFromContract",
      "outputs": [],
      "payable": false,
      "stateMutability": "nonpayable",
      "type": "function"
    },
    {
      "constant": false,
      "inputs": [],
      "name": "refund1ICO",
      "outputs": [],
      "payable": false,
      "stateMutability": "nonpayable",
      "type": "function"
    }
  ],
  "bytecode": "0x608060405233600260006101000a81548173ffffffffffffffffffffffffffffffffffffffff021916908373ffffffffffffffffffffffffffffffffffffffff160217905550737ede8260e573d3a3ddfc058f19309df5a1f7397e600360006101000a81548173ffffffffffffffffffffffffffffffffffffffff021916908373ffffffffffffffffffffffffffffffffffffffff160217905550730cdb839b52404d49417c8ded6c3e2157a06cdd37600460006101000a81548173ffffffffffffffffffffffffffffffffffffffff021916908373ffffffffffffffffffffffffffffffffffffffff16021790555073c032d3fca001b73e8cc3be0b75772329395caa49600560006101000a81548173ffffffffffffffffffffffffffffffffffffffff021916908373ffffffffffffffffffffffffffffffffffffffff160217905550635c3d2280600855635c67527f6009556a0222790bb7a0cc63740000600c556a034f086f3b33b684000000600d5534801561017e57600080fd5b506040516040806118fd8339810180604052810190808051906020019092919080519060200190929190505050336000806101000a81548173ffffffffffffffffffffffffffffffffffffffff021916908373ffffffffffffffffffffffffffffffffffffffff16021790555081600160006101000a81548173ffffffffffffffffffffffffffffffffffffffff021916908373ffffffffffffffffffffffffffffffffffffffff16021790555080600f81905550601f600f5467016345785d8a000081151561024a57fe5b0402600e81905550505061169a806102636000396000f300608060405260043610610133576000357c0100000000000000000000000000000000000000000000000000000000900463ffffffff1680630307c1b21461020e578063050895ff14610239578063274448ff1461029057806331198d19146102e757806340d7b7b8146103345780634eee42611461035f5780635ed9ebfc1461038a57806363ae8d6c146103b557806374a8f103146103e257806375f4b42c146104255780638620410b146104525780638ac27f5f1461047d5780638da5cb5b146104a85780639627c808146104ff5780639b19251a1461052e578063ab89032c14610589578063b6a5d7de146105b4578063b701dc14146105f7578063d9db65471461063a578063da089f4014610651578063da5f838d1461067c578063e4263621146106a7578063fc0c546a146106d4575b61013c3361072b565b151561014757600080fd5b61014f610781565b151561015a57600080fd5b610164333461079c565b600d546010541115151561017757600080fd5b6101c934600760003373ffffffffffffffffffffffffffffffffffffffff1673ffffffffffffffffffffffffffffffffffffffff16815260200190815260200160002054610d4290919063ffffffff16565b600760003373ffffffffffffffffffffffffffffffffffffffff1673ffffffffffffffffffffffffffffffffffffffff16815260200190815260200160002081905550005b34801561021a57600080fd5b50610223610d5e565b6040518082815260200191505060405180910390f35b34801561024557600080fd5b5061024e610d64565b604051808273ffffffffffffffffffffffffffffffffffffffff1673ffffffffffffffffffffffffffffffffffffffff16815260200191505060405180910390f35b34801561029c57600080fd5b506102d1600480360381019080803573ffffffffffffffffffffffffffffffffffffffff169060200190929190505050610d8a565b6040518082815260200191505060405180910390f35b3480156102f357600080fd5b50610332600480360381019080803573ffffffffffffffffffffffffffffffffffffffff16906020019092919080359060200190929190505050610da2565b005b34801561034057600080fd5b50610349610e5b565b6040518082815260200191505060405180910390f35b34801561036b57600080fd5b50610374610e61565b6040518082815260200191505060405180910390f35b34801561039657600080fd5b5061039f610e67565b6040518082815260200191505060405180910390f35b3480156103c157600080fd5b506103e060048036038101908080359060200190929190505050610e6d565b005b3480156103ee57600080fd5b50610423600480360381019080803573ffffffffffffffffffffffffffffffffffffffff169060200190929190505050610f32565b005b34801561043157600080fd5b5061045060048036038101908080359060200190929190505050611066565b005b34801561045e57600080fd5b506104676110cb565b6040518082815260200191505060405180910390f35b34801561048957600080fd5b506104926110d1565b6040518082815260200191505060405180910390f35b3480156104b457600080fd5b506104bd6110d7565b604051808273ffffffffffffffffffffffffffffffffffffffff1673ffffffffffffffffffffffffffffffffffffffff16815260200191505060405180910390f35b34801561050b57600080fd5b50610514610781565b604051808215151515815260200191505060405180910390f35b34801561053a57600080fd5b5061056f600480360381019080803573ffffffffffffffffffffffffffffffffffffffff1690602001909291905050506110fc565b604051808215151515815260200191505060405180910390f35b34801561059557600080fd5b5061059e61111c565b6040518082815260200191505060405180910390f35b3480156105c057600080fd5b506105f5600480360381019080803573ffffffffffffffffffffffffffffffffffffffff169060200190929190505050611122565b005b34801561060357600080fd5b50610638600480360381019080803573ffffffffffffffffffffffffffffffffffffffff1690602001909291905050506112fe565b005b34801561064657600080fd5b5061064f61139d565b005b34801561065d57600080fd5b506106666114f9565b6040518082815260200191505060405180910390f35b34801561068857600080fd5b506106916114ff565b6040518082815260200191505060405180910390f35b3480156106b357600080fd5b506106d260048036038101908080359060200190929190505050611505565b005b3480156106e057600080fd5b506106e961156a565b604051808273ffffffffffffffffffffffffffffffffffffffff1673ffffffffffffffffffffffffffffffffffffffff16815260200191505060405180910390f35b6000600660008373ffffffffffffffffffffffffffffffffffffffff1673ffffffffffffffffffffffffffffffffffffffff16815260200190815260200160002060009054906101000a900460ff169050919050565b6000600854421015801561079757506009544211155b905090565b6000806000806000806107d4600e546107c6670de0b6b3a76400008a61159090919063ffffffff16565b6115c890919063ffffffff16565b95506107ea6007876115c890919063ffffffff16565b945061081a606461080c6107fd896115de565b8961159090919063ffffffff16565b6115c890919063ffffffff16565b9350610841846108338789610d4290919063ffffffff16565b610d4290919063ffffffff16565b9550600160009054906101000a900473ffffffffffffffffffffffffffffffffffffffff1673ffffffffffffffffffffffffffffffffffffffff16633aa0396a89886040518363ffffffff167c0100000000000000000000000000000000000000000000000000000000028152600401808373ffffffffffffffffffffffffffffffffffffffff1673ffffffffffffffffffffffffffffffffffffffff16815260200182815260200192505050602060405180830381600087803b15801561090857600080fd5b505af115801561091c573d6000803e3d6000fd5b505050506040513d602081101561093257600080fd5b81019080805190602001909291905050505061095986601054610d4290919063ffffffff16565b6010819055506109866014610978600b8961159090919063ffffffff16565b6115c890919063ffffffff16565b9250600160009054906101000a900473ffffffffffffffffffffffffffffffffffffffff1673ffffffffffffffffffffffffffffffffffffffff16633aa0396a600360009054906101000a900473ffffffffffffffffffffffffffffffffffffffff16856040518363ffffffff167c0100000000000000000000000000000000000000000000000000000000028152600401808373ffffffffffffffffffffffffffffffffffffffff1673ffffffffffffffffffffffffffffffffffffffff16815260200182815260200192505050602060405180830381600087803b158015610a6f57600080fd5b505af1158015610a83573d6000803e3d6000fd5b505050506040513d6020811015610a9957600080fd5b810190808051906020019092919050505050610abf601e876115c890919063ffffffff16565b9150600160009054906101000a900473ffffffffffffffffffffffffffffffffffffffff1673ffffffffffffffffffffffffffffffffffffffff16633aa0396a600460009054906101000a900473ffffffffffffffffffffffffffffffffffffffff16846040518363ffffffff167c0100000000000000000000000000000000000000000000000000000000028152600401808373ffffffffffffffffffffffffffffffffffffffff1673ffffffffffffffffffffffffffffffffffffffff16815260200182815260200192505050602060405180830381600087803b158015610ba857600080fd5b505af1158015610bbc573d6000803e3d6000fd5b505050506040513d6020811015610bd257600080fd5b810190808051906020019092919050505050610bf8600c876115c890919063ffffffff16565b9050600160009054906101000a900473ffffffffffffffffffffffffffffffffffffffff1673ffffffffffffffffffffffffffffffffffffffff16633aa0396a600560009054906101000a900473ffffffffffffffffffffffffffffffffffffffff16836040518363ffffffff167c0100000000000000000000000000000000000000000000000000000000028152600401808373ffffffffffffffffffffffffffffffffffffffff1673ffffffffffffffffffffffffffffffffffffffff16815260200182815260200192505050602060405180830381600087803b158015610ce157600080fd5b505af1158015610cf5573d6000803e3d6000fd5b505050506040513d6020811015610d0b57600080fd5b810190808051906020019092919050505050610d3287600b54610d4290919063ffffffff16565b600b819055505050505050505050565b60008183019050828110151515610d5557fe5b80905092915050565b60085481565b600260009054906101000a900473ffffffffffffffffffffffffffffffffffffffff1681565b60076020528060005260406000206000915090505481565b6000809054906101000a900473ffffffffffffffffffffffffffffffffffffffff1673ffffffffffffffffffffffffffffffffffffffff163373ffffffffffffffffffffffffffffffffffffffff16141515610dfd57600080fd5b600c5460105410151515610e1057600080fd5b8173ffffffffffffffffffffffffffffffffffffffff166108fc829081150290604051600060405180830381858888f19350505050158015610e56573d6000803e3d6000fd5b505050565b600f5481565b600c5481565b60105481565b6000809054906101000a900473ffffffffffffffffffffffffffffffffffffffff1673ffffffffffffffffffffffffffffffffffffffff163373ffffffffffffffffffffffffffffffffffffffff16141515610ec857600080fd5b80600f81905550601f600f5467016345785d8a0000811515610ee657fe5b0402600e819055507f8e5d322ef7050e99e3845ad9d8b2608b9512de19853d4215b71b7a4ee2993d4f42600f54604051808381526020018281526020019250505060405180910390a150565b6000809054906101000a900473ffffffffffffffffffffffffffffffffffffffff1673ffffffffffffffffffffffffffffffffffffffff163373ffffffffffffffffffffffffffffffffffffffff16141515610f8d57600080fd5b6000600660008373ffffffffffffffffffffffffffffffffffffffff1673ffffffffffffffffffffffffffffffffffffffff16815260200190815260200160002060006101000a81548160ff021916908315150217905550600a60008154809291906001900391905055507f713b90881ad62c4fa8ab6bd9197fa86481fc0c11b2edba60026514281b2dbac48142604051808373ffffffffffffffffffffffffffffffffffffffff1673ffffffffffffffffffffffffffffffffffffffff1681526020018281526020019250505060405180910390a150565b6000809054906101000a900473ffffffffffffffffffffffffffffffffffffffff1673ffffffffffffffffffffffffffffffffffffffff163373ffffffffffffffffffffffffffffffffffffffff161415156110c157600080fd5b8060098190555050565b600e5481565b600a5481565b6000809054906101000a900473ffffffffffffffffffffffffffffffffffffffff1681565b60066020528060005260406000206000915054906101000a900460ff1681565b600d5481565b600260009054906101000a900473ffffffffffffffffffffffffffffffffffffffff1673ffffffffffffffffffffffffffffffffffffffff163373ffffffffffffffffffffffffffffffffffffffff1614806111ca57506000809054906101000a900473ffffffffffffffffffffffffffffffffffffffff1673ffffffffffffffffffffffffffffffffffffffff163373ffffffffffffffffffffffffffffffffffffffff16145b15156111d557600080fd5b600073ffffffffffffffffffffffffffffffffffffffff168173ffffffffffffffffffffffffffffffffffffffff161415151561121157600080fd5b61121a8161072b565b15151561122657600080fd5b6001600660008373ffffffffffffffffffffffffffffffffffffffff1673ffffffffffffffffffffffffffffffffffffffff16815260200190815260200160002060006101000a81548160ff021916908315150217905550600a600081548092919060010191905055507fb39b5f240c7440b58c1c6cfd328b09ff9aa18b3c8ef4b829774e4f5bad0394168142604051808373ffffffffffffffffffffffffffffffffffffffff1673ffffffffffffffffffffffffffffffffffffffff1681526020018281526020019250505060405180910390a150565b6000809054906101000a900473ffffffffffffffffffffffffffffffffffffffff1673ffffffffffffffffffffffffffffffffffffffff163373ffffffffffffffffffffffffffffffffffffffff1614151561135957600080fd5b80600260006101000a81548173ffffffffffffffffffffffffffffffffffffffff021916908373ffffffffffffffffffffffffffffffffffffffff16021790555050565b6000600c546010541080156113b3575060095442115b15156113be57600080fd5b600760003373ffffffffffffffffffffffffffffffffffffffff1673ffffffffffffffffffffffffffffffffffffffff1681526020019081526020016000205490506000600760003373ffffffffffffffffffffffffffffffffffffffff1673ffffffffffffffffffffffffffffffffffffffff168152602001908152602001600020541015151561144f57600080fd5b6000600760003373ffffffffffffffffffffffffffffffffffffffff1673ffffffffffffffffffffffffffffffffffffffff168152602001908152602001600020819055503373ffffffffffffffffffffffffffffffffffffffff166108fc829081150290604051600060405180830381858888f193505050501580156114da573d6000803e3d6000fd5b506114f081600b5461165590919063ffffffff16565b600b8190555050565b60095481565b600b5481565b6000809054906101000a900473ffffffffffffffffffffffffffffffffffffffff1673ffffffffffffffffffffffffffffffffffffffff163373ffffffffffffffffffffffffffffffffffffffff1614151561156057600080fd5b8060088190555050565b600160009054906101000a900473ffffffffffffffffffffffffffffffffffffffff1681565b6000808314156115a357600090506115c2565b81830290508183828115156115b457fe5b041415156115be57fe5b8090505b92915050565b600081838115156115d557fe5b04905092915050565b6000690da96b5bb3950d9000008211156115fb57600a9050611650565b69036a5ad6ece5436400008211156116165760079050611650565b69015db59bf1231cec00008211156116315760059050611650565b685770df29f5b114000082111561164b5760039050611650565b600090505b919050565b600082821115151561166357fe5b8183039050929150505600a165627a7a72305820b0144cfdd7fbe18e042a517f228c2c93214c7c27b4bc46e69519ce9d3013dd0e0029",
  "source": "pragma solidity ^0.4.23;\n\n/*** @title SafeMath\n * @dev https://github.com/OpenZeppelin/openzeppelin-solidity/blob/master/contracts/math/SafeMath.sol */\nlibrary SafeMath {\n\n    function mul(uint256 a, uint256 b) internal pure returns (uint256 c) {\n        if (a == 0) {\n            return 0;\n        }\n        c = a * b;\n        assert(c / a == b);\n        return c;\n    }\n\n    function div(uint256 a, uint256 b) internal pure returns (uint256) {\n        return a / b;\n    }\n\n    function sub(uint256 a, uint256 b) internal pure returns (uint256) {\n        assert(b <= a);\n        return a - b;\n    }\n\n    function add(uint256 a, uint256 b) internal pure returns (uint256 c) {\n        c = a + b;\n        assert(c >= a);\n        return c;\n    }\n}\n\ninterface ERC20 {\n    function transfer (address _beneficiary, uint256 _tokenAmount) external returns (bool);\n    function mintFromICO(address _to, uint256 _amount) external  returns(bool);\n}\n/**\n * @title Ownable\n * @dev https://github.com/OpenZeppelin/openzeppelin-solidity/blob/master/contracts/ownership/Ownable.sol\n */\ncontract Ownable {\n    address public owner;\n\n    constructor() public {\n        owner = msg.sender;\n    }\n\n    modifier onlyOwner() {\n        require(msg.sender == owner);\n        _;\n    }\n}\n\n/**\n * @title CrowdSale\n * @dev https://github.com/\n */\ncontract TwoStageMainSale is Ownable {\n\n    ERC20 public token;\n\n    using SafeMath for uint;\n\n    address public backEndOperator = msg.sender;\n    address team = 0x7eDE8260e573d3A3dDfc058f19309DF5a1f7397E; // 33% - team и ранние инвесторы проекта\n    address bounty = 0x0cdb839B52404d49417C8Ded6c3E2157A06CdD37; // 2% - для баунти программы\n    address reserve = 0xC032D3fCA001b73e8cC3be0B75772329395caA49; // 5%  - для резерва\n\n    mapping(address=>bool) public whitelist;\n\n    mapping(address => uint256) public investedEther;\n\n    uint256 public start2StageSale = 1547510400; // Tuesday, 15-Jan-19 00:00:00 UTC\n    uint256 public end2StageSale = 1550275199; // Friday, 15-Feb-19 23:59:59 UTC\n\n    uint256 public investors; // общее количество инвесторов\n    uint256 public weisRaised; // общее колиество собранных Ether\n\n    uint256 public softCap2Stage = 2580645*1e18; // $8,000,000 = 2,580,645 INM\n    uint256 public hardCap2Stage = 4000000*1e18; // 4,000,000 INM = $12,400,000 USD\n\n    uint256 public buyPrice; // 3.1 USD\n    uint256 public dollarPrice; // Ether by USD\n\n    uint256 public soldTokens; // solded tokens - > 1,700,000 INM\n\n    event Authorized(address wlCandidate, uint timestamp);\n    event Revoked(address wlCandidate, uint timestamp);\n    event UpdateDollar(uint256 time, uint256 _rate);\n\n    modifier backEnd() {\n        require(msg.sender == backEndOperator || msg.sender == owner);\n        _;\n    }\n\n    // конструктор контракта\n    constructor(ERC20 _token, uint256 usdETH) public {\n        token = _token;\n        dollarPrice = usdETH;\n        buyPrice = (1e17/dollarPrice)*31; // 3.1 usd\n    }\n\n    // изменение даты начала предварительной распродажи\n    function setStartTwoSale(uint256 newStart2Sale) public onlyOwner {\n        start2StageSale = newStart2Sale;\n    }\n\n    // изменение даты окончания предварительной распродажи\n    function setEndTwoSale(uint256 newEnd2Sale) public onlyOwner {\n        end2StageSale = newEnd2Sale;\n    }\n\n    // Изменение адреса оператора бекэнда\n    function setBackEndAddress(address newBackEndOperator) public onlyOwner {\n        backEndOperator = newBackEndOperator;\n    }\n\n    // Изменение курса доллра к эфиру\n    function setBuyPrice(uint256 _dollar) public onlyOwner {\n        dollarPrice = _dollar;\n        buyPrice = (1e17/dollarPrice)*31; // 3.10 usd\n        emit UpdateDollar(now, dollarPrice);\n    }\n\n    /*******************************************************************************\n     * Whitelist's section\n     */\n    // с сайта backEndOperator авторизует инвестора\n    function authorize(address wlCandidate) public backEnd  {\n        require(wlCandidate != address(0x0));\n        require(!isWhitelisted(wlCandidate));\n        whitelist[wlCandidate] = true;\n        investors++;\n        emit Authorized(wlCandidate, now);\n    }\n\n    // отмена авторизации инвестора в WL(только владелец контракта)\n    function revoke(address wlCandidate) public  onlyOwner {\n        whitelist[wlCandidate] = false;\n        investors--;\n        emit Revoked(wlCandidate, now);\n    }\n\n    // проверка на нахождение адреса инвестора в WL\n    function isWhitelisted(address wlCandidate) internal view returns(bool) {\n        return whitelist[wlCandidate];\n    }\n\n    /*******************************************************************************\n     * Payable's section\n     */\n    function isTwoStageSale() public constant returns(bool) {\n        return now >= start2StageSale && now <= end2StageSale;\n    }\n\n    // callback функция контракта\n    function () public payable {\n        require(isWhitelisted(msg.sender));\n        require(isTwoStageSale());\n        SaleTwoStage(msg.sender, msg.value);\n        require(soldTokens<=hardCap2Stage);\n        investedEther[msg.sender] = investedEther[msg.sender].add(msg.value);\n    }\n\n    // выпуск токенов в период предварительной распродажи\n    function SaleTwoStage(address _investor, uint256 _value) internal {\n        uint256 tokens = _value.mul(1e18).div(buyPrice);\n        uint256 tokensByDate = tokens.div(7);\n        uint256 bonusSumTokens = tokens.mul(bonusSum(tokens)).div(100);\n        tokens = tokens.add(tokensByDate).add(bonusSumTokens); // 60%\n        token.mintFromICO(_investor, tokens);\n        soldTokens = soldTokens.add(tokens);\n\n        uint256 tokensTeam = tokens.mul(11).div(20); // 33 %\n        token.mintFromICO(team, tokensTeam);\n\n        uint256 tokensBoynty = tokens.div(30); // 2 %\n        token.mintFromICO(bounty, tokensBoynty);\n\n        uint256 tokensReserve = tokens.div(12);  // 5 %\n        token.mintFromICO(reserve, tokensReserve);\n\n        weisRaised = weisRaised.add(_value);\n    }\n\n    function bonusSum(uint256 _amount) pure private returns(uint256) {\n        if (_amount > 64516*1e18) { // 200k+\t10% INMCoin\n            return 10;\n        } else if (_amount > 16129*1e18) { // 50k - 200k\t7% INMCoin\n            return 7;\n        } else if (_amount > 6451*1e18) { // 20k - 50k\t5% INMCoin\n            return 5;\n        } else if (_amount > 1613*1e18) { // 5k - 20k\t3% INMCoin\n            return 3;\n        } else {\n            return 0;\n        }\n    }\n\n    // Отправка эфира с контракта\n    function transferEthFromContract(address _to, uint256 amount) public onlyOwner {\n        require(soldTokens >= softCap2Stage);\n        _to.transfer(amount);\n    }\n\n    /*******************************************************************************\n     * Refundable\n     */\n    function refund1ICO() public {\n        require(soldTokens < softCap2Stage && now > end2StageSale);\n        uint rate = investedEther[msg.sender];\n        require(investedEther[msg.sender] >= 0);\n        investedEther[msg.sender] = 0;\n        msg.sender.transfer(rate);\n        weisRaised = weisRaised.sub(rate);\n    }\n}",
  "sourcePath": "/Users/ivanborisov/Yandex.Disk.localized/IT/WorkProjects/New_Legal_Tech/Gold_smart/contracts/ICO_stage2.sol",
  "compiler": {
    "name": "solc",
    "version": "0.4.23+commit.124ca40d.Emscripten.clang"
  },
  "schemaVersion": "2.0.0",
  "updatedAt": "2018-05-31T07:58:19.309Z"
}